{
  "contractName": "manUtils",
  "abi": [
    {
      "constant": true,
      "inputs": [
        {
          "name": "_addr",
          "type": "address"
        }
      ],
      "name": "toMan",
      "outputs": [
        {
          "name": "",
          "type": "string"
        }
      ],
      "payable": false,
      "stateMutability": "pure",
      "type": "function"
    },
    {
      "constant": true,
      "inputs": [
        {
          "name": "_manAddr",
          "type": "string"
        }
      ],
      "name": "toAddress",
      "outputs": [
        {
          "name": "",
          "type": "address"
        }
      ],
      "payable": false,
      "stateMutability": "pure",
      "type": "function"
    }
  ],
  "bytecode": "0x611f3b610030600b82828239805160001a6073146000811461002057610022565bfe5b5030600052607381538281f3007300000000000000000000000000000000000000003014608060405260043610610063576000357c0100000000000000000000000000000000000000000000000000000000900463ffffffff16806311cc0f2e146100685780637e4115ba14610117575b600080fd5b61009c600480360381019080803573ffffffffffffffffffffffffffffffffffffffff1690602001909291905050506101b3565b6040518080602001828103825283818151815260200191508051906020019080838360005b838110156100dc5780820151818401526020810190506100c1565b50505050905090810190601f1680156101095780820380516001836020036101000a031916815260200191505b509250505060405180910390f35b610171600480360381019080803590602001908201803590602001908080601f0160208091040260200160405190810160405280939291908181526020018383808284378201915050505050509192919290505050610850565b604051808273ffffffffffffffffffffffffffffffffffffffff1673ffffffffffffffffffffffffffffffffffffffff16815260200191505060405180910390f35b606060008060608060606000806000606060008060006060808f73ffffffffffffffffffffffffffffffffffffffff169d508d6c01000000000000000000000000029c506040805190810160405280600381526020017f4d414e00000000000000000000000000000000000000000000000000000000008152509b50606060405190810160405280603a81526020017f31323334353637383941424344454647484a4b4c4d4e5051525354555657585981526020017f5a6162636465666768696a6b6d6e6f707172737475767778797a0000000000008152509a508a9950600098506000975060009650601e6040519080825280601f01601f1916602001820160405280156102d15781602001602082028038833980820191505090505b509550600094505b601e8560ff1610156103cb57603a8e10156102f357600196505b603a8e8115156102ff57fe5b069750603a8e81151561030e57fe5b049d50898881518110151561031f57fe5b9060200101517f010000000000000000000000000000000000000000000000000000000000000090047f010000000000000000000000000000000000000000000000000000000000000002868660ff1681518110151561037b57fe5b9060200101907effffffffffffffffffffffffffffffffffffffffffffffffffffffffffffff1916908160001a905350888060010199505086156103be576103cb565b84806001019550506102d9565b600093505b601460ff1684101561046c5760007f0100000000000000000000000000000000000000000000000000000000000000028d8560148110151561040e57fe5b1a7f0100000000000000000000000000000000000000000000000000000000000000027effffffffffffffffffffffffffffffffffffffffffffffffffffffffffffff191614151561045f5761046c565b83806001019450506103d0565b8392508b915060028251858b60ff160101016040519080825280601f01601f1916602001820160405280156104b05781602001602082028038833980820191505090505b509050600094505b60018151038560ff16101561075e5781518560ff161115610632576000831115610585578280600190039350508960008151811015156104f457fe5b9060200101517f010000000000000000000000000000000000000000000000000000000000000090047f010000000000000000000000000000000000000000000000000000000000000002818660ff1681518110151561055057fe5b9060200101907effffffffffffffffffffffffffffffffffffffffffffffffffffffffffffff1916908160001a90535061062d565b858251858760ff1603038a60ff16038151811015156105a057fe5b9060200101517f010000000000000000000000000000000000000000000000000000000000000090047f010000000000000000000000000000000000000000000000000000000000000002818660ff168151811015156105fc57fe5b9060200101907effffffffffffffffffffffffffffffffffffffffffffffffffffffffffffff1916908160001a9053505b610751565b81518560ff1610156106e057818560ff1681518110151561064f57fe5b9060200101517f010000000000000000000000000000000000000000000000000000000000000090047f010000000000000000000000000000000000000000000000000000000000000002818660ff168151811015156106ab57fe5b9060200101907effffffffffffffffffffffffffffffffffffffffffffffffffffffffffffff1916908160001a905350610750565b81518560ff16141561074f577f2e00000000000000000000000000000000000000000000000000000000000000818660ff1681518110151561071e57fe5b9060200101907effffffffffffffffffffffffffffffffffffffffffffffffffffffffffffff1916908160001a9053505b5b5b84806001019550506104b8565b89603a61076f836001855103611358565b7f0100000000000000000000000000000000000000000000000000000000000000900460ff1681151561079e57fe5b0660ff168151811015156107ae57fe5b9060200101517f010000000000000000000000000000000000000000000000000000000000000090047f010000000000000000000000000000000000000000000000000000000000000002818660ff1681518110151561080a57fe5b9060200101907effffffffffffffffffffffffffffffffffffffffffffffffffffffffffffff1916908160001a905350809e505050505050505050505050505050919050565b6000606061085c611eea565b6000806000806000808997506120006040519081016040528060ff8016815260200160ff8016815260200160ff8016815260200160ff8016815260200160ff8016815260200160ff8016815260200160ff8016815260200160ff8016815260200160ff8016815260200160ff8016815260200160ff8016815260200160ff8016815260200160ff8016815260200160ff8016815260200160ff8016815260200160ff8016815260200160ff8016815260200160ff8016815260200160ff8016815260200160ff8016815260200160ff8016815260200160ff8016815260200160ff8016815260200160ff8016815260200160ff8016815260200160ff8016815260200160ff8016815260200160ff8016815260200160ff8016815260200160ff8016815260200160ff8016815260200160ff8016815260200160ff8016815260200160ff8016815260200160ff8016815260200160ff8016815260200160ff8016815260200160ff8016815260200160ff8016815260200160ff8016815260200160ff8016815260200160ff8016815260200160ff8016815260200160ff8016815260200160ff8016815260200160ff8016815260200160ff8016815260200160ff8016815260200160ff80168152602001600060ff168152602001600160ff168152602001600260ff168152602001600360ff168152602001600460ff168152602001600560ff168152602001600660ff168152602001600760ff168152602001600860ff16815260200160ff8016815260200160ff8016815260200160ff8016815260200160ff8016815260200160ff8016815260200160ff8016815260200160ff80168152602001600960ff168152602001600a60ff168152602001600b60ff168152602001600c60ff168152602001600d60ff168152602001600e60ff168152602001600f60ff168152602001601060ff16815260200160ff80168152602001601160ff168152602001601260ff168152602001601360ff168152602001601460ff168152602001601560ff16815260200160ff80168152602001601660ff168152602001601760ff168152602001601860ff168152602001601960ff168152602001601a60ff168152602001601b60ff168152602001601c60ff168152602001601d60ff168152602001601e60ff168152602001601f60ff168152602001602060ff16815260200160ff8016815260200160ff8016815260200160ff8016815260200160ff8016815260200160ff8016815260200160ff80168152602001602160ff168152602001602260ff168152602001602360ff168152602001602460ff168152602001602560ff168152602001602660ff168152602001602760ff168152602001602860ff168152602001602960ff168152602001602a60ff168152602001602b60ff16815260200160ff80168152602001602c60ff168152602001602d60ff168152602001602e60ff168152602001602f60ff168152602001603060ff168152602001603160ff168152602001603260ff168152602001603360ff168152602001603460ff168152602001603560ff168152602001603660ff168152602001603760ff168152602001603860ff168152602001603960ff16815260200160ff8016815260200160ff8016815260200160ff8016815260200160ff8016815260200160ff8016815260200160ff8016815260200160ff8016815260200160ff8016815260200160ff8016815260200160ff8016815260200160ff8016815260200160ff8016815260200160ff8016815260200160ff8016815260200160ff8016815260200160ff8016815260200160ff8016815260200160ff8016815260200160ff8016815260200160ff8016815260200160ff8016815260200160ff8016815260200160ff8016815260200160ff8016815260200160ff8016815260200160ff8016815260200160ff8016815260200160ff8016815260200160ff8016815260200160ff8016815260200160ff8016815260200160ff8016815260200160ff8016815260200160ff8016815260200160ff8016815260200160ff8016815260200160ff8016815260200160ff8016815260200160ff8016815260200160ff8016815260200160ff8016815260200160ff8016815260200160ff8016815260200160ff8016815260200160ff8016815260200160ff8016815260200160ff8016815260200160ff8016815260200160ff8016815260200160ff8016815260200160ff8016815260200160ff8016815260200160ff8016815260200160ff8016815260200160ff8016815260200160ff8016815260200160ff8016815260200160ff8016815260200160ff8016815260200160ff8016815260200160ff8016815260200160ff8016815260200160ff8016815260200160ff8016815260200160ff8016815260200160ff8016815260200160ff8016815260200160ff8016815260200160ff8016815260200160ff8016815260200160ff8016815260200160ff8016815260200160ff8016815260200160ff8016815260200160ff8016815260200160ff8016815260200160ff8016815260200160ff8016815260200160ff8016815260200160ff8016815260200160ff8016815260200160ff8016815260200160ff8016815260200160ff8016815260200160ff8016815260200160ff8016815260200160ff8016815260200160ff8016815260200160ff8016815260200160ff8016815260200160ff8016815260200160ff8016815260200160ff8016815260200160ff8016815260200160ff8016815260200160ff8016815260200160ff8016815260200160ff8016815260200160ff8016815260200160ff8016815260200160ff8016815260200160ff8016815260200160ff8016815260200160ff8016815260200160ff8016815260200160ff8016815260200160ff8016815260200160ff8016815260200160ff8016815260200160ff8016815260200160ff8016815260200160ff8016815260200160ff8016815260200160ff8016815260200160ff8016815260200160ff8016815260200160ff8016815260200160ff8016815260200160ff8016815260200160ff8016815260200160ff8016815260200160ff8016815260200160ff8016815260200160ff8016815260200160ff8016815260200160ff8016815260200160ff8016815260200160ff8016815260200160ff8016815260200160ff8016815260200160ff8016815260200160ff8016815260200160ff8016815250965060009550600194506000935060009250600188510391505b6000821115611348577f2e00000000000000000000000000000000000000000000000000000000000000886001840381518110151561120257fe5b9060200101517f010000000000000000000000000000000000000000000000000000000000000090047f0100000000000000000000000000000000000000000000000000000000000000027effffffffffffffffffffffffffffffffffffffffffffffffffffffffffffff1916141561127a57611348565b876001830381518110151561128b57fe5b9060200101517f010000000000000000000000000000000000000000000000000000000000000090047f0100000000000000000000000000000000000000000000000000000000000000027f01000000000000000000000000000000000000000000000000000000000000009004905086816101008110151561130a57fe5b6020020151925060ff8360ff161415151561132457600080fd5b8260ff16935084840293508386019550603a850294508180600190039250506111c7565b8598505050505050505050919050565b60006060611364611eea565b60008086935061200060405190810160405280600060ff168152602001600760ff168152602001600e60ff168152602001600960ff168152602001601c60ff168152602001601b60ff168152602001601260ff168152602001601560ff168152602001603860ff168152602001603f60ff168152602001603660ff168152602001603160ff168152602001602460ff168152602001602360ff168152602001602a60ff168152602001602d60ff168152602001607060ff168152602001607760ff168152602001607e60ff168152602001607960ff168152602001606c60ff168152602001606b60ff168152602001606260ff168152602001606560ff168152602001604860ff168152602001604f60ff168152602001604660ff168152602001604160ff168152602001605460ff168152602001605360ff168152602001605a60ff168152602001605d60ff16815260200160e060ff16815260200160e760ff16815260200160ee60ff16815260200160e960ff16815260200160fc60ff16815260200160fb60ff16815260200160f260ff16815260200160f560ff16815260200160d860ff16815260200160df60ff16815260200160d660ff16815260200160d160ff16815260200160c460ff16815260200160c360ff16815260200160ca60ff16815260200160cd60ff168152602001609060ff168152602001609760ff168152602001609e60ff168152602001609960ff168152602001608c60ff168152602001608b60ff168152602001608260ff168152602001608560ff16815260200160a860ff16815260200160af60ff16815260200160a660ff16815260200160a160ff16815260200160b460ff16815260200160b360ff16815260200160ba60ff16815260200160bd60ff16815260200160c760ff16815260200160c060ff16815260200160c960ff16815260200160ce60ff16815260200160db60ff16815260200160dc60ff16815260200160d560ff16815260200160d260ff16815260200160ff8016815260200160f860ff16815260200160f160ff16815260200160f660ff16815260200160e360ff16815260200160e460ff16815260200160ed60ff16815260200160ea60ff16815260200160b760ff16815260200160b060ff16815260200160b960ff16815260200160be60ff16815260200160ab60ff16815260200160ac60ff16815260200160a560ff16815260200160a260ff168152602001608f60ff168152602001608860ff168152602001608160ff168152602001608660ff168152602001609360ff168152602001609460ff168152602001609d60ff168152602001609a60ff168152602001602760ff168152602001602060ff168152602001602960ff168152602001602e60ff168152602001603b60ff168152602001603c60ff168152602001603560ff168152602001603260ff168152602001601f60ff168152602001601860ff168152602001601160ff168152602001601660ff168152602001600360ff168152602001600460ff168152602001600d60ff168152602001600a60ff168152602001605760ff168152602001605060ff168152602001605960ff168152602001605e60ff168152602001604b60ff168152602001604c60ff168152602001604560ff168152602001604260ff168152602001606f60ff168152602001606860ff168152602001606160ff168152602001606660ff168152602001607360ff168152602001607460ff168152602001607d60ff168152602001607a60ff168152602001608960ff168152602001608e60ff168152602001608760ff168152602001608060ff168152602001609560ff168152602001609260ff168152602001609b60ff168152602001609c60ff16815260200160b160ff16815260200160b660ff16815260200160bf60ff16815260200160b860ff16815260200160ad60ff16815260200160aa60ff16815260200160a360ff16815260200160a460ff16815260200160f960ff16815260200160fe60ff16815260200160f760ff16815260200160f060ff16815260200160e560ff16815260200160e260ff16815260200160eb60ff16815260200160ec60ff16815260200160c160ff16815260200160c660ff16815260200160cf60ff16815260200160c860ff16815260200160dd60ff16815260200160da60ff16815260200160d360ff16815260200160d460ff168152602001606960ff168152602001606e60ff168152602001606760ff168152602001606060ff168152602001607560ff168152602001607260ff168152602001607b60ff168152602001607c60ff168152602001605160ff168152602001605660ff168152602001605f60ff168152602001605860ff168152602001604d60ff168152602001604a60ff168152602001604360ff168152602001604460ff168152602001601960ff168152602001601e60ff168152602001601760ff168152602001601060ff168152602001600560ff168152602001600260ff168152602001600b60ff168152602001600c60ff168152602001602160ff168152602001602660ff168152602001602f60ff168152602001602860ff168152602001603d60ff168152602001603a60ff168152602001603360ff168152602001603460ff168152602001604e60ff168152602001604960ff168152602001604060ff168152602001604760ff168152602001605260ff168152602001605560ff168152602001605c60ff168152602001605b60ff168152602001607660ff168152602001607160ff168152602001607860ff168152602001607f60ff168152602001606a60ff168152602001606d60ff168152602001606460ff168152602001606360ff168152602001603e60ff168152602001603960ff168152602001603060ff168152602001603760ff168152602001602260ff168152602001602560ff168152602001602c60ff168152602001602b60ff168152602001600660ff168152602001600160ff168152602001600860ff168152602001600f60ff168152602001601a60ff168152602001601d60ff168152602001601460ff168152602001601360ff16815260200160ae60ff16815260200160a960ff16815260200160a060ff16815260200160a760ff16815260200160b260ff16815260200160b560ff16815260200160bc60ff16815260200160bb60ff168152602001609660ff168152602001609160ff168152602001609860ff168152602001609f60ff168152602001608a60ff168152602001608d60ff168152602001608460ff168152602001608360ff16815260200160de60ff16815260200160d960ff16815260200160d060ff16815260200160d760ff16815260200160c260ff16815260200160c560ff16815260200160cc60ff16815260200160cb60ff16815260200160e660ff16815260200160e160ff16815260200160e860ff16815260200160ef60ff16815260200160fa60ff16815260200160fd60ff16815260200160f460ff16815260200160f360ff16815250925060007f0100000000000000000000000000000000000000000000000000000000000000029150600090505b85811015611eb8578260ff7f01000000000000000000000000000000000000000000000000000000000000000260ff7f0100000000000000000000000000000000000000000000000000000000000000028684815181101515611e0057fe5b9060200101517f010000000000000000000000000000000000000000000000000000000000000090047f010000000000000000000000000000000000000000000000000000000000000002168418167f0100000000000000000000000000000000000000000000000000000000000000900460ff1661010081101515611e8257fe5b60200201517f01000000000000000000000000000000000000000000000000000000000000000291508080600101915050611da1565b60ff7f010000000000000000000000000000000000000000000000000000000000000002821694505050505092915050565b61200060405190810160405280610100906020820280388339808201915050905050905600a165627a7a72305820549c5a270c74063dff55d31a498c1c80962efdd7c6d9d30abac2691bef6a26b90029",
  "source": "pragma solidity ^0.4.22;\n\nlibrary  manUtils {\n    /* Converts given number to base58, limited by _maxLength symbols */\n    function toMan(address _addr)  public pure returns (string) {\n        uint256 _value = uint256(_addr);\n        bytes20 _bytevalue = bytes20(_value);\n        string memory currency = \"MAN\";\n        string memory letters = \"123456789ABCDEFGHJKLMNPQRSTUVWXYZabcdefghijkmnopqrstuvwxyz\";\n        bytes memory alphabet = bytes(letters);\n        uint8 len = 0;\n        uint256 remainder = 0;\n        bool needBreak = false;\n        bytes memory bytesReversed = bytes(new string(30));\n\n        for (uint8 i = 0; i < 30; i++) {\n            if(_value < 58){\n                needBreak = true;\n            }\n            remainder = _value % 58;\n            _value = uint256(_value / 58);\n            bytesReversed[i] = alphabet[remainder];\n            len++;\n            if(needBreak){\n                break;\n            }\n        }\n\n        uint numzero;\n        for (numzero = 0; numzero < _bytevalue.length; numzero++) {\n            if(_bytevalue[numzero] != 0x00) {\n                break;\n            }\n        }\n\n        // Reverse\n        uint it = numzero;\n        bytes memory currencybyte = bytes(currency);\n        bytes memory result = bytes(new string(len + numzero + currencybyte.length + 2));\n        for (i = 0 ; i < result.length -1; i++) {\n            if(i > currencybyte.length){\n                if(it > 0){\n                    it--;\n                    result[i] = alphabet[0];\n                }\n                else\n                    result[i] = bytesReversed[len - (i - numzero - currencybyte.length)];\n            }\n            else if(i< currencybyte.length)\n                result[i] = currencybyte[i];\n            else if(i == currencybyte.length )\n                result[i] = '.';\n        }\n        result[i] = alphabet[uint8(crc8(string(result), uint(result.length-1))) % 58];\n\n        return string(result);\n    }\n\n    function toAddress(string _manAddr) public pure returns(address) {\n        bytes memory _prefix = bytes(_manAddr);\n\n        uint8[256] memory unbase58 = [\n        255, 255, 255, 255, 255, 255, 255, 255,\n        255, 255, 255, 255, 255, 255, 255, 255,\n        255, 255, 255, 255, 255, 255, 255, 255,\n        255, 255, 255, 255, 255, 255, 255, 255,\n        255, 255, 255, 255, 255, 255, 255, 255,\n        255, 255, 255, 255, 255, 255, 255, 255,\n        255, 0, 1, 2, 3, 4, 5, 6,\n        7, 8, 255, 255, 255, 255, 255, 255,\n        255, 9, 10, 11, 12, 13, 14, 15,\n        16, 255, 17, 18, 19, 20, 21, 255,\n        22, 23, 24, 25, 26, 27, 28, 29,\n        30, 31, 32, 255, 255, 255, 255, 255,\n        255, 33, 34, 35, 36, 37, 38, 39,\n        40, 41, 42, 43, 255, 44, 45, 46,\n        47, 48, 49, 50, 51, 52, 53, 54,\n        55, 56, 57, 255, 255, 255, 255, 255,\n        255, 255, 255, 255, 255, 255, 255, 255,\n        255, 255, 255, 255, 255, 255, 255, 255,\n        255, 255, 255, 255, 255, 255, 255, 255,\n        255, 255, 255, 255, 255, 255, 255, 255,\n        255, 255, 255, 255, 255, 255, 255, 255,\n        255, 255, 255, 255, 255, 255, 255, 255,\n        255, 255, 255, 255, 255, 255, 255, 255,\n        255, 255, 255, 255, 255, 255, 255, 255,\n        255, 255, 255, 255, 255, 255, 255, 255,\n        255, 255, 255, 255, 255, 255, 255, 255,\n        255, 255, 255, 255, 255, 255, 255, 255,\n        255, 255, 255, 255, 255, 255, 255, 255,\n        255, 255, 255, 255, 255, 255, 255, 255,\n        255, 255, 255, 255, 255, 255, 255, 255,\n        255, 255, 255, 255, 255, 255, 255, 255,\n        255, 255, 255, 255, 255, 255, 255, 255\n        ];\n\n        uint256 prefixValue = 0;\n        uint256 prefix1 = 1;\n        uint256 scratch = 0;\n        uint8 tmp = 0;\n\n        for (uint i = _prefix.length-1; i >0 ; i--) {\n            if(_prefix[i-1] == '.')\n                break;\n            uint index = uint(_prefix[i-1]);\n            tmp = unbase58[index];\n            require(tmp != 255);\n            scratch = tmp;\n            scratch = scratch * prefix1;\n            prefixValue += scratch;\n            prefix1 *= 58;\n        }\n        return address(prefixValue);\n    }\n\n    /* Concatenates two strings */\n\n    function crc8(string addr,uint len) private pure returns (byte){\n        bytes memory b = bytes(addr);\n        uint8[256] memory checksum_table = [0x00, 0x07, 0x0E, 0x09, 0x1C, 0x1B, 0x12, 0x15, 0x38, 0x3F, 0x36, 0x31, 0x24, 0x23, 0x2A, 0x2D,\n        0x70, 0x77, 0x7E, 0x79, 0x6C, 0x6B, 0x62, 0x65, 0x48, 0x4F, 0x46, 0x41, 0x54, 0x53, 0x5A, 0x5D,\n        0xE0, 0xE7, 0xEE, 0xE9, 0xFC, 0xFB, 0xF2, 0xF5, 0xD8, 0xDF, 0xD6, 0xD1, 0xC4, 0xC3, 0xCA, 0xCD,\n        0x90, 0x97, 0x9E, 0x99, 0x8C, 0x8B, 0x82, 0x85, 0xA8, 0xAF, 0xA6, 0xA1, 0xB4, 0xB3, 0xBA, 0xBD,\n        0xC7, 0xC0, 0xC9, 0xCE, 0xDB, 0xDC, 0xD5, 0xD2, 0xFF, 0xF8, 0xF1, 0xF6, 0xE3, 0xE4, 0xED, 0xEA,\n        0xB7, 0xB0, 0xB9, 0xBE, 0xAB, 0xAC, 0xA5, 0xA2, 0x8F, 0x88, 0x81, 0x86, 0x93, 0x94, 0x9D, 0x9A,\n        0x27, 0x20, 0x29, 0x2E, 0x3B, 0x3C, 0x35, 0x32, 0x1F, 0x18, 0x11, 0x16, 0x03, 0x04, 0x0D, 0x0A,\n        0x57, 0x50, 0x59, 0x5E, 0x4B, 0x4C, 0x45, 0x42, 0x6F, 0x68, 0x61, 0x66, 0x73, 0x74, 0x7D, 0x7A,\n        0x89, 0x8E, 0x87, 0x80, 0x95, 0x92, 0x9B, 0x9C, 0xB1, 0xB6, 0xBF, 0xB8, 0xAD, 0xAA, 0xA3, 0xA4,\n        0xF9, 0xFE, 0xF7, 0xF0, 0xE5, 0xE2, 0xEB, 0xEC, 0xC1, 0xC6, 0xCF, 0xC8, 0xDD, 0xDA, 0xD3, 0xD4,\n        0x69, 0x6E, 0x67, 0x60, 0x75, 0x72, 0x7B, 0x7C, 0x51, 0x56, 0x5F, 0x58, 0x4D, 0x4A, 0x43, 0x44,\n        0x19, 0x1E, 0x17, 0x10, 0x05, 0x02, 0x0B, 0x0C, 0x21, 0x26, 0x2F, 0x28, 0x3D, 0x3A, 0x33, 0x34,\n        0x4E, 0x49, 0x40, 0x47, 0x52, 0x55, 0x5C, 0x5B, 0x76, 0x71, 0x78, 0x7F, 0x6A, 0x6D, 0x64, 0x63,\n        0x3E, 0x39, 0x30, 0x37, 0x22, 0x25, 0x2C, 0x2B, 0x06, 0x01, 0x08, 0x0F, 0x1A, 0x1D, 0x14, 0x13,\n        0xAE, 0xA9, 0xA0, 0xA7, 0xB2, 0xB5, 0xBC, 0xBB, 0x96, 0x91, 0x98, 0x9F, 0x8A, 0x8D, 0x84, 0x83,\n        0xDE, 0xD9, 0xD0, 0xD7, 0xC2, 0xC5, 0xCC, 0xCB, 0xE6, 0xE1, 0xE8, 0xEF, 0xFA, 0xFD, 0xF4, 0xF3];\n        byte result=0x00;\n        for (uint i = 0; i < len; i++) {\n            result = byte(checksum_table[uint8((result ^ (b[i] & 0xFF) ) & 0xFF)]);\n        }\n        return (byte) (result & 0xFF);\n    }\n\n}",
  "sourcePath": "/home/cranelv/work/src/github.com/cranelv/MatrixDemo/contracts/manUtils.sol",
  "compiler": {
    "name": "solc",
    "version": "0.4.22+commit.4cb486ee.Emscripten.clang"
  },
  "schemaVersion": "3.0.11",
  "updatedAt": "2019-08-30T02:21:23.978Z",
  "devdoc": {
    "methods": {}
  },
  "userdoc": {
    "methods": {}
  }
}